{
  "_format": "hh-sol-artifact-1",
  "contractName": "EthereumConfig",
  "sourceName": "@fhevm/solidity/config/ZamaConfig.sol",
  "abi": [
    {
      "inputs": [],
      "stateMutability": "nonpayable",
      "type": "constructor"
    },
    {
      "inputs": [],
      "name": "protocolId",
      "outputs": [
        {
          "internalType": "uint256",
          "name": "",
          "type": "uint256"
        }
      ],
      "stateMutability": "view",
      "type": "function"
    }
  ],
  "bytecode": "0x60806040523461015b574660010361009b57610019610192565b505f604061002561015f565b8281526020810183905201527f9e7b61f58c47dc699ac88507c4f5bb9f121c03808c5676a8078fe583e464970080546001600160a01b03199081169091555f805160206102888339815191528054821690555f805160206102a8833981519152805490911690555b604051607c908161020c8239f35b4662aa36a703610147576101426100b06101ac565b80517f9e7b61f58c47dc699ac88507c4f5bb9f121c03808c5676a8078fe583e464970080546001600160a01b03199081166001600160a01b039384161790915560208301515f80516020610288833981519152805490921690831617905590604001515f805160206102a883398151915280546001600160a01b0319166001600160a01b039390921692909216179055565b61008d565b617a69460361008d576101426100b06101ac565b5f80fd5b60405190606082016001600160401b0381118382101761017e57604052565b634e487b7160e01b5f52604160045260245ffd5b61019a61015f565b905f82525f60208301525f6040830152565b6101b4610192565b506101bd61015f565b73f0ffdc93b7e186bc2f8cb3daa75d86d1930a433d81527392c920834ec8941d2c77d188936e1f7a6f49c127602082015273be0e383937d564d7ff0bc3b46c51f0bf8d5c311a60408201529056fe60808060405260043610156011575f80fd5b5f3560e01c63da1f12ab146023575f80fd5b34603e575f366003190112603e57602090603a6042565b8152f35b5f80fd5b46600103604e57600190565b4662aa36a703605d5761271190565b617a6946146069575f90565b6127119056fea164736f6c6343000818000a9e7b61f58c47dc699ac88507c4f5bb9f121c03808c5676a8078fe583e46497019e7b61f58c47dc699ac88507c4f5bb9f121c03808c5676a8078fe583e4649702",
  "linkReferences": {},
  "deployedLinkReferences": {}
}