{
  "_format": "hh-sol-artifact-1",
  "contractName": "MediShieldPreCheck",
  "sourceName": "contracts/MediShieldPreCheck.sol",
  "abi": [
    {
      "anonymous": false,
      "inputs": [
        {
          "indexed": true,
          "internalType": "address",
          "name": "applicant",
          "type": "address"
        },
        {
          "indexed": false,
          "internalType": "bytes32",
          "name": "categoryHandle",
          "type": "bytes32"
        },
        {
          "indexed": true,
          "internalType": "uint256",
          "name": "timestamp",
          "type": "uint256"
        }
      ],
      "name": "EligibilityEvaluated",
      "type": "event"
    },
    {
      "inputs": [
        {
          "internalType": "externalEuint8",
          "name": "ageHandle",
          "type": "bytes32"
        },
        {
          "internalType": "bytes",
          "name": "ageProof",
          "type": "bytes"
        },
        {
          "internalType": "externalEbool",
          "name": "historyHandle",
          "type": "bytes32"
        },
        {
          "internalType": "bytes",
          "name": "historyProof",
          "type": "bytes"
        },
        {
          "internalType": "externalEbool",
          "name": "chronicHandle",
          "type": "bytes32"
        },
        {
          "internalType": "bytes",
          "name": "chronicProof",
          "type": "bytes"
        },
        {
          "internalType": "externalEbool",
          "name": "lifestyleHandle",
          "type": "bytes32"
        },
        {
          "internalType": "bytes",
          "name": "lifestyleProof",
          "type": "bytes"
        }
      ],
      "name": "checkEligibility",
      "outputs": [
        {
          "internalType": "bytes32",
          "name": "categoryHandle",
          "type": "bytes32"
        }
      ],
      "stateMutability": "nonpayable",
      "type": "function"
    },
    {
      "inputs": [
        {
          "internalType": "address",
          "name": "account",
          "type": "address"
        }
      ],
      "name": "getLastEligibility",
      "outputs": [
        {
          "internalType": "bytes32",
          "name": "categoryHandle",
          "type": "bytes32"
        },
        {
          "internalType": "uint256",
          "name": "evaluatedAt",
          "type": "uint256"
        }
      ],
      "stateMutability": "view",
      "type": "function"
    },
    {
      "inputs": [],
      "name": "protocolId",
      "outputs": [
        {
          "internalType": "uint256",
          "name": "",
          "type": "uint256"
        }
      ],
      "stateMutability": "view",
      "type": "function"
    }
  ],
  "bytecode": "0x608060405234620001705746600103620000a5576200001d620001a8565b505f60406200002b62000174565b8281526020810183905201527f9e7b61f58c47dc699ac88507c4f5bb9f121c03808c5676a8078fe583e464970080546001600160a01b03199081169091555f8051602062000f258339815191528054821690555f8051602062000f45833981519152805490911690555b604051610cfd9081620002288239f35b4662aa36a703620001585762000152620000be620001c4565b80517f9e7b61f58c47dc699ac88507c4f5bb9f121c03808c5676a8078fe583e464970080546001600160a01b03199081166001600160a01b039384161790915560208301515f8051602062000f25833981519152805490921690831617905590604001515f8051602062000f4583398151915280546001600160a01b0319166001600160a01b039390921692909216179055565b62000095565b617a694603620000955762000152620000be620001c4565b5f80fd5b60405190606082016001600160401b038111838210176200019457604052565b634e487b7160e01b5f52604160045260245ffd5b620001b262000174565b905f82525f60208301525f6040830152565b620001ce620001a8565b50620001d962000174565b73f0ffdc93b7e186bc2f8cb3daa75d86d1930a433d81527392c920834ec8941d2c77d188936e1f7a6f49c127602082015273be0e383937d564d7ff0bc3b46c51f0bf8d5c311a60408201529056fe60806040526004361015610011575f80fd5b5f3560e01c806368753fcd146100bb578063da1f12ab146100995763df0dfd541461003a575f80fd5b34610095576020366003190112610095576004356001600160a01b038116809103610095576040905f905f905f525f602052825f205480610083575b5082519182526020820152f35b9150506001602052815f20545f610076565b5f80fd5b34610095575f3660031901126100955760206100b3610888565b604051908152f35b34610095576101003660031901126100955767ffffffffffffffff602435818111610095576100ee9036906004016107ca565b9190606435828111610095576101089036906004016107ca565b60a493919335828111610095576101239036906004016107ca565b9260e4359081116100955761013f6101499136906004016107ca565b9590973691610842565b956001600160a01b035f80516020610cd18339815191525416956040519663045fc19560e11b88526004356004890152336024890152608060448901528851908160848a01525f5b8281106107b4575088995097809697985f60a4848401015260026064830152815f60a460209d8e96601f801991011681010301925af19485156105e0575f95610785575b506001600160a01b037f9e7b61f58c47dc699ac88507c4f5bb9f121c03808c5676a8078fe583e4649700541693843b1561009557604051630f8e573b60e21b815260048101879052336024820152945f908690604490829084905af19384156105e05761026361025b6102739461026b946102839961027b99610776575b503691610842565b604435610a8f565b973691610842565b608435610a8f565b953691610842565b60c435610a8f565b6001600160a01b035f80516020610cd18339815191525416936040519286846044815f639cd07acb60e01b9a8b835260126004840152600260248401525af19384156105e0575f94610747575b50839087819282159687610737575b15610729575b60646001600160a01b035f80516020610cd18339815191525416945f6040519687948593631391547f60e01b8552600485015260248401528160448401525af19182156105e0575f926106fa575b505f90886001600160a01b035f80516020610cd183398151915254166044604051809581938d835260406004840152600260248401525af180156105e05789925f916106cb575b508091966106bb575b156106ad575b60646001600160a01b035f80516020610cd18339815191525416965f6040519889948593631d44e90160e21b8552600485015260248401528160448401525af19384156105e0575f9461067a575b50906103e96103f4946103ef936108b8565b9461096c565b61096c565b5f846001600160a01b035f80516020610cd18339815191525416602460405180948193630f51ccfb60e41b83528760048401525af19081156105e0575f9161064d575b505f9161044761044d92856108b8565b936108b8565b846001600160a01b035f80516020610cd1833981519152541660446040518095819389835260016004840152600260248401525af19182156105e0575f9261061e575b505f856001600160a01b035f80516020610cd183398151915254166044604051809481938a835260026004840152600260248401525af19485156105e05786915f966105eb575b50905f929160446001600160a01b035f80516020610cd18339815191525416916040519586938492835260036004840152600260248401525af19182156105e0575f926105af575b50906105349461052e926109f1565b916109f1565b335f525f825260405f2055600181524260405f20555f815261055a3360405f2054610c69565b335f525f815261056f60405f20543090610c69565b335f525f815260405f205460405181815242907feee0011033aef7f226abd4e710128821398f6791559abde6cb7579a60bcffad5843392a3604051908152f35b91508582813d83116105d9575b6105c68183610820565b810103126100955790519061053461051f565b503d6105bc565b6040513d5f823e3d90fd5b828194939297503d8311610617575b6106048183610820565b810103126100955790519385905f6104d7565b503d6105fa565b9091508481813d8311610646575b6106368183610820565b8101031261009557519085610490565b503d61062c565b90508481813d8311610673575b6106648183610820565b8101031261009557515f610437565b503d61065a565b9350908684813d83116106a6575b6106928183610820565b8101031261009557925192906103e96103d7565b503d610688565b506106b6610bce565b610389565b95506106c5610bce565b95610383565b83819492503d83116106f3575b6106e28183610820565b81010312610095578891518a61037a565b503d6106d8565b9091508781813d8311610722575b6107128183610820565b810103126100955751905f610333565b503d610708565b50610732610bce565b6102e5565b9350610741610bce565b936102df565b9093508681813d831161076f575b61075f8183610820565b81010312610095575192876102d0565b503d610755565b61077f906107f8565b8e610253565b9094508781813d83116107ad575b61079d8183610820565b81010312610095575193886101d5565b503d610793565b80602080928d01015160a4828d01015201610191565b9181601f840112156100955782359167ffffffffffffffff8311610095576020838186019501011161009557565b67ffffffffffffffff811161080c57604052565b634e487b7160e01b5f52604160045260245ffd5b90601f8019910116810190811067ffffffffffffffff82111761080c57604052565b92919267ffffffffffffffff821161080c576040519161086c601f8201601f191660200184610820565b829481845281830111610095578281602093845f960137010152565b4660010361089557600190565b4662aa36a7036108a55761271190565b617a6946146108b2575f90565b61271190565b90811561095c575b801561094a575b60209060646001600160a01b035f80516020610cd18339815191525416935f604051958694859363d99882d560e01b8552600485015260248401528160448401525af19081156105e0575f9161091b575090565b90506020813d602011610942575b8161093660209383610820565b81010312610095575190565b3d9150610929565b506020610955610c1c565b90506108c7565b9050610966610c1c565b906108c0565b9081156109e1575b80156109cf575b60209060646001600160a01b035f80516020610cd18339815191525416935f60405195869485936363a2db2960e01b8552600485015260248401528160448401525af19081156105e0575f9161091b575090565b5060206109da610c1c565b905061097b565b90506109eb610c1c565b90610974565b91908215610a7f575b8015610a71575b8115610a5b575b6064602092935f6001600160a01b035f80516020610cd183398151915254166040519687958694637702dcff60e01b86526004860152602485015260448401525af19081156105e0575f9161091b575090565b602091506064610a69610bce565b925050610a08565b50610a7a610bce565b610a01565b9150610a89610c1c565b916109fa565b91906001600160a01b0392835f80516020610cd183398151915254169060405192839163045fc19560e11b83526004830152336024830152608060448301528051908160848401525f5b828110610bb657505091815f60a48286838360209984010152836064830152601f801991011681010301925af19081156105e0575f91610b84575b5080927f9e7b61f58c47dc699ac88507c4f5bb9f121c03808c5676a8078fe583e46497005416803b1561009557604051630f8e573b60e21b815260048101929092523360248301525f908290818381604481015b03925af180156105e057610b795750565b610b82906107f8565b565b90506020813d602011610bae575b81610b9f60209383610820565b8101031261009557515f610b14565b3d9150610b92565b602082820181015160a4888401015286945001610ad9565b5f60206001600160a01b035f80516020610cd18339815191525416604460405180948193639cd07acb60e01b8352816004840152600260248401525af19081156105e0575f9161091b575090565b5f60206001600160a01b035f80516020610cd18339815191525416604460405180948193639cd07acb60e01b83528160048401528160248401525af19081156105e0575f9161091b575090565b6001600160a01b037f9e7b61f58c47dc699ac88507c4f5bb9f121c03808c5676a8078fe583e4649700541691823b1561009557604051635ca4b5b160e11b815260048101929092526001600160a01b03166024820152905f90829081838160448101610b6856fe9e7b61f58c47dc699ac88507c4f5bb9f121c03808c5676a8078fe583e4649701a164736f6c6343000818000a9e7b61f58c47dc699ac88507c4f5bb9f121c03808c5676a8078fe583e46497019e7b61f58c47dc699ac88507c4f5bb9f121c03808c5676a8078fe583e4649702",
  "linkReferences": {},
  "deployedLinkReferences": {}
}